:400000000040002011000000BD020000BD02000010B500F025FB00F059F9C04670B51A4C12232360182000F093FA80225201174B1A60174B174A1A6080214900164A1160F3
:40004000164A1A60E0210901154A1160154A1A600025154B1D604222144B1A60023A144B1A600132134B1A6013490D2000F0B8F90D2000F09FF9114B1D60002000F0F8FAD9
:400080001123236070BDC04630001040080301400000014042FF00800003014040FF00800403014041FF008028000340080101400401014000010140050700000C022240C4
:4000C00010B572B6164A174B1A60EE22164B1A60FF221204154B1A60EE221202144B1A60F023144A13601449144A1160144A13600322144B1A602132134B1A603023134A24
:4001000013601349134A1160134A1360D8221201124B1A60FFF782FF00F0C4F810BDC0460000BFFF00000240000102400002024000030240000004400060DB0008000440E1
:4001400018000440000104400801044000020440B661030008020440180204400803044010B5064C2378002B07D1054B002B02D0044800E000BF0123237010BD380100206C
:40018000000000008C100000084B10B5002B03D00749084800E000BF07480368002B00D110BD064B002BFBD09847F9E7000000003C0100208C100000B000002000000000FC
:4001C00010B500F0ABFBC30646D500F00DFC052836D1224B1B78012B32D1204A1279172A2ED1012B07D1033800F07CFC1B4B5878022100F045FC194B1B78022B20D1174B87
:400200005C782411A30708D5002000F0D9FC012000F0E2FC002000F0EBFC630708D5002000F0CEFC002000F0D7FC012000F0E0FC002000F057FC094B5878022100F020FCBC
:4002400000F0DEFB00F084FB00F068FBC30703D500F0D0FB00F068FB10BDC0468001002010B562B600F0EEFB012000F0A9FC002000F0B2FC002000F0BBFC4021074800F03E
:400280007BFB4021064800F095FB00F0A3FAFFF797FF012000F0DCF8F9E7C046B4000020800100200322034B1A601D32024B1A607047C04630003040000E3F4010B500F09E
:4002C000B9FE03680C2B00D1FEE7FEE770B50F4E0F4D13E029686B68AC68002202E001C901C30432A242FAD1E868002202E0002102C304328242FAD11035013E002EE9D1DF
:4003000000F09EFEFFF7ACFFFEE7C04601000000B810000010B500230AE0032B03D89A000849505800E008489900084A885001332B2BF2D9FFF7C4FE80229205044B1A606C
:4003400010BDC04600000000BD0200000000002008ED00E00C4B1B689B001C22134018330A4A1268920803210A40D34008490868084A02400A60084A944663441B78DBB20A
:40038000064A13607047C046080F03402800034000002240FFFFFFBF4DF3FF0F0C0F0340034B18688023DB05184000D001207047000022401F2318401E3B8340014A136007
:4003C0007047C04600E100E01F2318401E3B8340014A13607047C04680E100E001BE704770B504000D001B2802D90020FFF7F6FF1034A40080239B059C4664442068256076
:4004000070BDC04670B504000E00032902D90020FFF7E4FF1B2C02D90020FFF7DFFF03252540ED00063500F0F8FBA408A400074B9C46644421680323AB4099430B003100C6
:40044000A9401943216000F0ECFB70BD00E400E010B5040006E0084B586800F0D5FB074B9C46644480231B029C42F4D8024B9868604300F0C9FB10BDB80000200080FFFF5F
:4004800070B582B000F0E2F800284DD000F0C5FB0500264B1A6892001C231A401832244B1B689B0803210B40DA400021214B1960214C2168214B0B4021494A438021C90186
:4004C0008C466244D20B013A5205520D1343A0225203134323601B4B1B680193302000F0A3FB194A13688021C9050B4313602668164B1E40002407E00120FFF7A9FF1034AC
:40050000A30533430C4A1360EE2CF5D90120FFF79FFFFF239B051E43074B1E60019A094B1A60280000F07DFB02B070BD080F0340280003400C0F03400800224000F800C027
:4005400040420F003000104000002240FFFF3FC0F0B583B0040018280BD01C2809D0202807D0242805D0282803D02C2801D0302849D100F052FB0190FFF712FF002803D02D
:40058000FFF7E8FE012600E00026214A136807218B4313601F4BE3181B78DBB21E4A13601E4A13688B4313601D4803687F22934319001C4BE3181B7813400B4303603220B4
:4005C00000F022FB182C16D9114F3B680725AB431A0023001C3B9B082B4013433B60322000F012FB3A68AA432300183B9B082C001C4014433C60012E01D1FFF741FF0198C9
:4006000000F00FFB02E00020FFF7E8FE03B0F0BD080F03404DF3FF0F0C0F0340100F0340180F034034F3FF0F10B5034B1B7B584300F0EAFA10BDC046B8000020024B1868EB
:40064000800F80077047C0460C022240034B1B68002B01DA012000E00020704700002240014A024B1A6070476588EDAC3800034010B50400FFF7E2FFA0421AD0144A136817
:4006800003218B431360134B1B689B0F01D17C2001E086204000FFF7C7FF00F0BEFA0D4A13689B009B08A40FA4071C43146000F0B8FA074B1B6803229343064A1268920F93
:4006C00001D1023200E001221343014A136010BD140222400C02224010B5040000F09DFA054B1C4005490B68054A134023430B600B6800F096FA10BD0404040010022240B8
:40070000FBFBFBFF10B5244B1B685B0715D5234B1B685B070ED5224B5969042001401F4C22688A4322605A6982435A619B68002B00D098470420FFF7CFFF174B1B685B056B
:4007400018D5164B1B685B0510D5154B59698022D2001140114802688A4302605969114A0A405A61DB68002B00D098478020C000FFF7B2FF084B1B685B030CD5074B1B685A
:400780005B0304D5064B1B69002B00D098478020C002FFF7A1FF10BD10022240CC00002054010020FFFBFFFF10B50720FFF702FE10BDC04610B500F01DF810BD10B5044A62
:4007C0001368802109060B431360FFF7EDFF10BD0000244010B5064B1B78002B04D1FFF7E9FF0122024B1A70FFF7E8FF10BDC0466C01002010B500241B4B1C601B4A1C4BA5
:400800001A601C4B1C4A13601C4A14601C491D4A11601D4A13601D4B1C600720FFF7D4FD03210720FFF7EEFD19490720FFF7D8FD184B1C60184B1C604C22FF32174B1A6082
:40084000174B1C60174B1C60174B1C603C3AFF3A164B1A70164B1C70164B1C60164B1C60164B1C7010BDC0460000244077080040600024400701008000032440040324409C
:400880004A00FE001003244000022440040224407D0C0000C80E2440880E2440480F2440080F2440C80F2440880F244085010020900100208801002094010020A801002002
:4008C00010B50E4A13685B005B08136000230C490B600C490B600C4804680C49214001600B490B600B490B6010210B4B19701368802109060B43136010BDC0460000244004
:40090000680024406C00244060002440FF5CFFFF880F2440C80F244085010020014B1878C0B270479001002010B50720FFF74CFD064A14780F231C4013780D218B431370CD
:400940000720FFF737FD200010BDC0469001002010B50720FFF738FD064B1C780F229443197820320A401A700720FFF723FD200010BDC0469001002070B504000D00002888
:400980000ED00720FFF720FD064B1C60064B1D600023064A1360064A13600720FFF70AFD70BDC046A401002098010020880100208C01002070B504000D0000280CD007204F
:4009C000FFF702FD054B1C60054B1D600022054B1A600720FFF7EEFC70BDC046A00100209C01002094010020014B18687047C046940100200022014B1A607047880100208A
:400A00000022014B1A6070479401002010B50820FFF7D0FC10BDC04610B500F03FF810BD10B500F06FF810BD10B5054A1368802109060B431360FFF7E9FFFFF7EDFF10BDB1
:400A40000000254010B5064B1B78002B04D1FFF7E7FF0122024B1A70FFF7E6FF10BDC04674010020044B1B681F221340082BF9D0024B18607047C046080225404002254055
:400A800070B506000D00002404E06300985BFFF7E9FF0134AC42F8D370BDC0460D4A1368F02109050B4313600B4B1968F0200003014319601168F0200006014311601A6882
:400AC000F02109040A431A60044B1A88044B1A607047C04600000240000202407C010020880F254005490A68054B1A408006C0231B051840104308607047C0462000254033
:400B0000FFFFFFF310B5184A184B1A60184A194B1A60194B194A13600721194A1160194A13600024184B1C600820FFF74DFC03210820FFF767FC15490820FFF751FC144B3E
:400B40001C60144B1C60144B1C6080229200134B1A60134B1C60134B1C601A68124B1A800120FFF7BFFF10BD0F0000010000254001000080200025400F01008000032540F5
:400B8000040325400002254004022540AD0B0000880E2540C80E2540480F2540080F2540C80F2540880F25407C01002010B5034B1B68002B00D0984710BDC0467801002020
:400BC000044A1368DBB201218B430840184310607047C0460002044004490A68D2B202239A43400018401043086070470002044004490A68D2B204239A4380001840104392
:400C000008607047000204400230800803D001300238FCD1C046C0467047EFF3108072B6704780F31088704770B50400FFF7F5FF0500102C05D8104A136803218B43136049
:400C400016E0202C07D80C490B6803229343023A13430B600CE0302C07D807490B6803229343013A13430B6002E00020FFF7B6FB2800FFF7D6FF70BD3000104010B5CA4B8F
:400C80001B68002B00D09847C84B1B68DB0702D50022C74B1A60C74B1B789B0622D4C64B1A680223FF331A421CD0C24B1B78DB070AD5C24A137802218B431370117809234B
:400CC0000B43DBB213700AE0BC4A137820218B431370117870235B420B43DBB213700022B44B1A70B34B1B789B0600D55AE1B14B1B78DB0600D453E1AF4B1B689B0740D5D9
:400D00000222AF4B1A60AF490B681D321A40096880231B020B4000D001239B18AA4A1278D2B2934206D2A54A117804230B43DBB2137006E0A44A12789B1AA4490A68D31AD9
:400D40000B60A24B1A68A24B1A600023A14A13609D4A1370A04B1A68802149020A431A6019689E4A0A401A60944A137802218B431370117801230B43DBB2137010228D4B08
:400D80001A708D4B1B681B0739D508228C4B1A60934B1B689B040CD414E0924B1A68924909688A1891490968C9B211701A6801321A608F4B1B68DB06EFD1894A11688D4BEA
:400DC0000B4013608C4B1B689B0605D57B4A117840230B43DBB213700022884B1A60884A854B1A60754A137820218B431370117810230B43DBB213706E4B10221A706E4BA2
:400E00001B685B0648D501227E4B1A607E4B1B68DB0610D50F326F4B1A606D4B1A686B4B1A60664A117802230B43DBB213701222604B1A7025E0754B1B686A4A12689B1A0A
:400E4000072B03D804226D4B1A6011E0082B06D1634A1368A02109020B43136008E0604A1368802189010B4313600822634B1A60524A117820230B43DBB2137011224D4B81
:400E80001A70634A4E4B1A60624A116808230B4313600122604B1A60604B1B681B072AD55A4B1B684F4A1068181A0838082802D9002408200EE001240CE04A4B1A684A4995
:400EC00009688A1849490968C9B211701A6801321A6001380028F0D1002C08D0404A1368802109020B4313600022444B1A600822414B1A6025E0494B1B685B0721D53B4BC4
:400F00001B68384A1168414A126891420DD20121414A1160334A1168334800684118DBB20B7013680133136008E002223A4B1A60224A117840230B43DBB2137004222E4BA2
:400F40001A60374B1B68DB0620D42BE01F4B1A68344B1B689A420CD21C4B1A68324909688A181278D2B231490A601A6801321A600CE0FF222D4B1A60134B1B78DBB20A2B20
:400F800004D8114A13780133DBB213700D4B1B681F221340082BD9D10F3A254B1A6001E0FFF78EFC10BDC046700100208C0E2440880E2440850100204C0F244090010020D9
:400FC000400F244008022440A80100208C01002088010020880F244004022440FFFFFEFF6000244094010020A00100204003244008032440FF5FFFFFC00F2440C80F244037
:40100000ED0F0000800E2440640024409C010020FF0F0000480F24406C002440CC0F24408C0F244098010020A401002040022440800F2440014B18687047C0463001002075
:401040000E4B70B500251E000D4CE41AA410A54204D0AB00F35898470135F8E700F01AF8084B00251E00084CE41AA410A54204D0AB00F35898470135F8E770BDA0100000DF
:40108000A0100000A0100000A81000000000000043000000F8B5C046F8BC08BC9E4670478901000015030000F8B5C046F8BC08BC9E46704761010000C8100000B00000209D
:4010C00088000000780000000000000001FF1700010000000000E02EC05D00001800000000366E0104040400000000000000000000000000000000000000000000000000E4
:40110000000000000000000090100000000000000000000000000000000000000000000000000000000000000000000000000000000000000000000000000000000000000F
:401140000000000000000000D0000020000000000000000000000000000000000000000000000000000000000000000000000000000000000000000000000000000000007F
:40118000000000000000000000000000000000000000000000000000000000000000000000000000000000000000000000000000000000000000000000000000000000002F
:4011C00000000000000000000000000000000000000000000000000000000000000000000000000000000000000000000000000000000000000000000000000000000000EF
:4012000000000000000000000000000000000000000000000000000000000000000000000000000000000000000000000000000000000000000000000000000000000000AE
:40124000000000000000000000000000000000000000000000000000000000000000000000000000000000000000000000000000000000000000000000000000000000006E
:020000040001F9
:0200000490303A
:0200000034DBEF
:0200000490402A
:4000000000000000000000000000000000000000000000000000000000000000000000000000000000000000000000000000000000000000000000000000000000000000C0
:0200000490501A
:0C0000000002254811B50001254D469076
:0200000490600A
:0100000001FE
:00000001FF